:100000000C9472000C949A000C949A000C949A0030
:100010000C949A000C949A000C949A000C949A00F8
:100020000C949A000C949A000C949A000C949A00E8
:100030000C949A000C949A000C949A000C949A00D8
:100040000C947C040C949A000C944A040C942404A0
:100050000C949A000C949A000C949A000C949A00B8
:100060000C949A000C949A000000000024002700D1
:100070002A0000000000250028002B00005EBCE2E2
:10008000613FDD83C29C7E20A3FD1F41009D23BEF6
:1000900046DB65F88C11AF32CA57E97400000008DE
:1000A000000201000003040700000000000000003F
:1000B00000000000230026002900040404040404B6
:1000C0000404020202020202030303030303010207
:1000D00004081020408001020408102001020408D6
:1000E0001020C60411241FBECFEFD4E0DEBFCDBF69
:1000F00011E0A0E0B1E0E4E5F5E102C005900D9269
:10010000AE32B107D9F722E0AEE2B1E001C01D92F4
:10011000A334B207E1F710E0C2E7D0E004C02197B2
:10012000FE010E949D0AC137D107C9F70E942D0523
:100130000C94A80A0C94000090913502E0913602CC
:10014000F0913702F8948181292F209582238183B1
:1001500078948DE743E050E0815021F1DA01119766
:10016000F1F730813923C1F3F894828182238283AD
:100170008181892B81837894ABE7B7E01197F1F700
:10018000F894818128232183A3E1B1E01197F1F74D
:100190008081982381E009F080E07894E3E6F6E03E
:1001A0003197F1F7089590913502E0913602F09180
:1001B0003702392F309580FF13C0F8942281832FA6
:1001C000822382838181892B8183A3E2B0E011970E
:1001D000F1F78281982B9283789487ED90E012C09A
:1001E000F8942281832F822382838181892B8183CA
:1001F000AFEFB0E01197F1F78281982B928378945A
:100200008FE090E00197F1F70895EF92FF920F933E
:100210001F93CF93DF931F92CDB7DEB7082F88E0EF
:10022000E82EF12C11E081E0912F902309F480E079
:1002300069830E94D300110F81E0E81AF1086981F7
:10024000E114F10481F7611113C0F894E0913602D2
:10025000F0913702918180913502809598239183A6
:10026000E0913602F091370292818923828378945B
:100270000F90DF91CF911F910F91FF90EF90089514
:10028000EF92FF920F931F93CF93DF931F92CDB7FF
:10029000DEB7182F60E085E599830E940501E12E05
:1002A0009981F92E8701085F1F4F60E0F701819166
:1002B0007F010E940501E016F106B9F70F90DF916A
:1002C000CF911F910F91FF90EF900895809135028B
:1002D000E0913602F0913702F8949181982B918346
:1002E0002281982F909529232283A7E0B0E01197CF
:1002F000F1F7218192239183A3E2B0E01197F1F706
:1003000090817894EFECF0E03197F1F7982381E059
:1003100009F480E0089580E480937C0080917A0065
:10032000806480937A0080917A0086FDFCCF809172
:1003300078002091790090E0922B0895CF92DF927F
:10034000EF92FF920F931F93CF93DF936C017A018B
:100350008B01C0E0D0E0CE15DF0589F0D8016D91AA
:100360008D01D601ED91FC910190F081E02DC60147
:100370000995892B11F47E0102C02196ECCFC701AB
:10038000DF91CF911F910F91FF90EF90DF90CF9071
:100390000895089580E090E00895FC01538D448D08
:1003A000252F30E0842F90E0821B930B541710F020
:1003B000CF96089501970895FC01918D828D98172D
:1003C00061F0828DDF01A80FB11D5D968C91928D39
:1003D0009F5F9F73928F90E008958FEF9FEF089536
:1003E000FC01918D828D981731F0828DE80FF11DFF
:1003F000858D90E008958FEF9FEF0895FC01918D1A
:10040000228D892F90E0805C9F4F821B91098F7312
:100410009927089588E991E00E94FE0121E0892B47
:1004200009F420E0822F0895FC01848DDF01A80FDC
:10043000B11DA35ABF4F2C91848D90E001968F730C
:100440009927848FA689B7892C93A089B1898C912B
:1004500080648C93938D848D981306C00288F389F1
:10046000E02D80818F7D80830895EF92FF920F931E
:100470001F93CF93DF93EC0181E0888F9B8D8C8D50
:10048000981305C0E889F989808185FD24C0F62E7E
:100490000B8D10E00F5F1F4F0F731127E02E8C8D17
:1004A000E8120CC00FB607FCFACFE889F989808101
:1004B00085FFF5CFCE010E941402F1CF8B8DFE0196
:1004C000E80FF11DE35AFF4FF0820B8FEA89FB8999
:1004D0008081806207C0EE89FF896083E889F9899D
:1004E00080818064808381E090E0DF91CF911F91D3
:1004F0000F91FF90EF900895CF93DF93EC01888DDB
:100500008823C9F0EA89FB89808185FD05C0A88917
:10051000B9898C9186FD0FC00FB607FCF5CF80819D
:1005200085FFF2CFA889B9898C9185FFEDCFCE01E7
:100530000E941402E7CFDF91CF91089580E090E010
:10054000892B29F00E940A0281110C940000089561
:10055000833081F028F4813099F08230A1F0089541
:100560008730A9F08830B9F08430D1F480918000D0
:100570008F7D03C0809180008F77809380000895E5
:1005800084B58F7702C084B58F7D84BD0895809136
:10059000B0008F7703C08091B0008F7D8093B00052
:1005A00008951F93CF93DF93282F30E0F901E4568D
:1005B000FF4F8491F901E253FF4FD491F901E654C2
:1005C000FF4FC491CC23C9F0162F81110E94A802BD
:1005D000EC2FF0E0EE0FFF1FEE58FF4FA591B49106
:1005E0008FB7F894111105C09C91ED2FE095E92388
:1005F00002C0EC91ED2BEC938FBFDF91CF911F9157
:100600000895CF93DF9390E0FC01E253FF4F2491D4
:10061000FC01E654FF4F8491882361F190E0880F3C
:10062000991FFC01E859FF4FC591D491FC01EE5888
:10063000FF4FA591B491611109C09FB7F8948881CB
:10064000209582238883EC912E230BC0623061F4C5
:100650009FB7F8943881822F809583238883EC910B
:100660002E2B2C939FBF06C08FB7F894E8812E2BBA
:1006700028838FBFDF91CF9108953FB7F894809181
:10068000360190913701A0913801B091390126B51A
:10069000A89B05C02F3F19F00196A11DB11D3FBFBA
:1006A000BA2FA92F982F8827820F911DA11DB11D48
:1006B000BC01CD0142E0660F771F881F991F4A9544
:1006C000D1F708958F929F92AF92BF92CF92DF920F
:1006D000EF92FF926B017C010E943D034B015C0194
:1006E000C114D104E104F104F1F00E943D03DC01E6
:1006F000CB0188199909AA09BB09883E9340A10535
:10070000B10570F321E0C21AD108E108F10888EEC2
:10071000880E83E0981EA11CB11CC114D104E10411
:10072000F10419F7DDCFFF90EF90DF90CF90BF90ED
:10073000AF909F908F9008952FB7F89460913201F9
:100740007091330180913401909135012FBF08954C
:100750009FB7F89480913001882319F081508093DD
:10076000300180913001811105C08CB58F7B8CBD2B
:1007700010922F019FBF0895CF93CFB7F894809127
:100780003001811127C0E4ECF0E08491E8EDF0E065
:100790009491E82FF0E0EE0FFF1FE859FF4FA5916D
:1007A000B491EC91E92321F461E08AE00E94D10246
:1007B00061E08AE00E9401038CB580618CBD8CB53C
:1007C00080648CBD61E08DE00E94010361E08BE0FC
:1007D0000E940103809130018F5F80933001CFBF71
:1007E000CF910895CF93DF93D82FC62F60E089E093
:1007F0000E94D102DEBD00000DB407FEFDCF8EB514
:10080000CEBD00000DB407FEFDCF8EB561E089E0DE
:10081000DF91CF910C94D10220912F01222379F006
:100820002FB7F89430912F01313039F43DB3309324
:100830002E013DB33DBB2FBF02C020932E018CBDC6
:100840009DBD08950E94A30A1F920F920FB60F92AA
:1008500011242F933F934F935F936F937F938F93C5
:100860009F93AF93BF93EF93FF9388E991E00E942A
:100870001402FF91EF91BF91AF919F918F917F9162
:100880006F915F914F913F912F910F900FBE0F90FD
:100890001F9018951F920F920FB60F9211242F934D
:1008A0008F939F93EF93FF93E091A801F091A9019B
:1008B0008081E091AE01F091AF0182FD12C0908184
:1008C0008091B1018F5F8F732091B201821751F037
:1008D000E091B101F0E0E856FE4F958F8093B101B1
:1008E00001C08081FF91EF919F918F912F910F9087
:1008F0000FBE0F901F9018951F920F920FB60F9278
:1009000011242F933F938F939F93AF93BF93809125
:10091000320190913301A0913401B09135013091B1
:10092000310123E0230F2D3720F40196A11DB11DC5
:1009300005C026E8230F0296A11DB11D20933101A9
:100940008093320190933301A0933401B093350129
:100950008091360190913701A0913801B091390111
:100960000196A11DB11D8093360190933701A0938C
:100970003801B0933901BF91AF919F918F913F9111
:100980002F910F900FBE0F901F90189510929B0102
:1009900010929A0188EE93E0A0E0B0E080939C0171
:1009A00090939D01A0939E01B0939F0180E291E0FE
:1009B000909399018093980185EC90E09093A50124
:1009C0008093A40184EC90E09093A7018093A6010A
:1009D00080EC90E09093A9018093A80181EC90E0D5
:1009E0009093AB018093AA0182EC90E09093AD01CB
:1009F0008093AC0186EC90E09093AF018093AE01C0
:100A00001092B1011092B2011092B3011092B40190
:100A100060E08AE00E940103E8EDF0E0E491E093F9
:100A20003502E4ECF0E0E491F0E0EE0FFF1FE0555A
:100A3000FF4F8591949190933702809336021092E4
:100A400040021092420210924102E0E4F2E012925F
:100A500082E0E833F807D9F70895CF93DF9300D009
:100A600000D0CDB7DEB7789484B5826084BD84B5FC
:100A7000816084BD85B5826085BD85B5816085BD99
:100A800080916E00816080936E0010928100809151
:100A900081008260809381008091810081608093D9
:100AA0008100809180008160809380008091B100FE
:100AB00084608093B1008091B00081608093B00029
:100AC00080917A00846080937A0080917A008260BD
:100AD00080937A0080917A00816080937A0080917F
:100AE0007A00806880937A001092C100E091A8019A
:100AF000F091A90182E08083E091A401F091A50129
:100B00001082E091A601F091A70187E68083109200
:100B1000B001E091AC01F091AD0186E08083E091FD
:100B2000AA01F091AB01808180618083E091AA01EC
:100B3000F091AB01808188608083E091AA01F091FF
:100B4000AB01808180688083E091AA01F091AB01C4
:100B500080818F7D808361E089E00E94010361E0F4
:100B600089E00E94D10260E08EE00E94010380E5EE
:100B700091E00E940C040E94BC0360E08FEF0E9491
:100B8000F2036FEF89E00E94F2036FEF8AE00E94A8
:100B9000F20363E08BE00E94F2036FEF8CE00E94AF
:100BA000F2031092960180919601843048F411E08E
:100BB000180F6FE0812F0E94F20310939601F3CF7C
:100BC000A12CB12CE3E0EE2EF12C10929601C50180
:100BD000875F9E4F6C0190919601943070F411E004
:100BE000190FF701E91BF109EC0DFD1D6081812F43
:100BF0000E94F20310939601EECF6AEF70E080E05E
:100C000090E00E9462039FEFA91AB90AE8E0AE16CD
:100C1000B104D9F61092960180919601843048F47F
:100C200011E0180F6FE0812F0E94F20310939601DC
:100C3000F3CF0E94A80310929601F0909601F3E082
:100C4000FF1518F10F2D10E0F801E85EFE4FE0806F
:100C500061E08E2D0E94010361E08E2D0E94D10281
:100C6000F801EC5EFE4F60E080810E94010364E6C3
:100C700070E080E090E00E94620360E08E2D0E94B0
:100C8000D102F394F0929601D8CFE0909501809133
:100C90004202811172C00E949C00882309F46DC039
:100CA00060E080EF0E940501CC24C39400E0F12CA9
:100CB000DD24D3940E946601182F0E946601113032
:100CC00019F48130C9F436C0202F30E018131EC04B
:100CD00080914002D81638F4F901EB5CFD4F838116
:100CE0008C2151F402C0D81639F010E088E08D153F
:100CF00060F0D092410209C0E02FF0E0EB5CFD4FC4
:100D000083818C29838311E009C0FD2CF901EB5C00
:100D1000FD4F93818C2D809589238383812F0E94A1
:100D2000D300D394CC0C19F40F5FCC24C3940830B7
:100D300008F4C0CF90E49D1500F5F0924002F11048
:100D400003C081E080934202809138028823A9F099
:100D5000F8E0EF9E9001112480E090E0FC01E20FAA
:100D6000F31FE65CFE4FDC01AB5CBD4F13964C916C
:100D7000408301968830910589F7109240021092C5
:100D8000420210924102E0E4F2E0129222E0E833E3
:100D9000F207D9F75CE0352E6AE0C62ED12C70E957
:100DA000472E55245394612C712C80905B019090B8
:100DB0005C01A0905D01B0905E010E949C038616CC
:100DC0009706A806B90608F084C080915A018823C6
:100DD00009F454C08A3009F07CC04AE3E42E41E0B3
:100DE000F42E00E010E00E949C00C7010E94400128
:100DF00060E08EEB0E94050110929601309E50013A
:100E0000319EB00C112420909601F8E0F21510F1FB
:100E1000422D50E038E0832E912C21E090E02C838D
:100E200049835A839B830E9466012C8149815A81A0
:100E30009B818111922B220F81E0881A910879F70A
:100E40004A0D5B1D4F595E4FFA0190832394209207
:100E50009601D9CF0F5F1F4F28E0E20EF11C04303E
:100E6000110509F0C0CF10925A010E949C03DC01C9
:100E7000CB01805F984DAF4FBF4F23C010929601BA
:100E800010919601143090F40E949C00E8E01E9F9F
:100E9000C0011124865C9E4F0E94400161E084E401
:100EA0000E9405011F5F10939601EACF8AE08093AC
:100EB0005A010E949C03DC01CB0188519C4FAF4F2B
:100EC000BF4F80935B0190935C01A0935D01B09351
:100ED0005E018090910190909201A0909301B0905A
:100EE00094010E949C0386169706A806B90608F08E
:100EF000D4C01092960100919601043008F034C0DD
:100F0000E02FF0E0EC5EFE4F208130E0F901E45686
:100F1000FF4F8491F901E253FF4F1491F901E65418
:100F2000FF4FF490FF20E1F081110E94A802EF2D05
:100F3000F0E0EE0FFF1FE055FF4FA591B491EC914B
:100F40001E2371F080919501081741F01092050160
:100F5000109206011092070110920801009395016A
:100F60000F5F00939601C7CF2091950130E0329E2C
:100F7000D001339EB00D1124AF59BE4F99E0F92E28
:100F8000E0E0FA94FF2089F08D918E27E82FEF7032
:100F9000F0E0E458FF4F949182958F70E82FF0E0D5
:100FA000E457FF4FE491E927ECCF329ED001339E06
:100FB000B00D1124AF59BE4F18968C911897E813B5
:100FC0004FC011960C91119710E0102F00278C91B3
:100FD000082BB80117FF04C066277727601B710B29
:100FE000072E000C880B990B0E94E9092DEC3CECB4
:100FF0004CEC5FE30E943F090E94B1099B01462F20
:10100000972FEF2DF0E0E050FF4F842FB6010E94A4
:10101000750A8083462F972FF394F4E0FF12F1CFE7
:10102000F092960160935F017093600180910101DD
:1010300080588093010117FF03C08AE08093030169
:10104000283E83E0380744F48FE080930301243680
:10105000310514F4809302018FEF809304010DC0D9
:1010600088EF809304011092000185E080930101D4
:10107000809302018BE0809303010E949C03DC01BA
:10108000CB018C599F4FAF4FBF4F809391019093ED
:101090009201A0939301B0939401809005019090E8
:1010A0000601A0900701B09008010E949C038616DB
:1010B0009706A806B90608F084C00E948B01883CF8
:1010C000910564F00E948B018935924064F40E947E
:1010D0008B01092E000CAA0BBB0B09C088EC90E019
:1010E000A0E0B0E004C088E592E0A0E0B0E09C01A0
:1010F000AD01285C310941095109AFE0B0E00E941F
:101100000309A30192010E94E4082093970180E55E
:1011100091E02C830E940C040E94BC0360E08FEFDE
:101120000E94F2036091040189E00E94F2032C8185
:10113000622F8AE00E94F20363E08BE00E94F203D8
:101140006FEF8CE00E94F20310929601E0919601FD
:10115000E43060F411E01E0FF0E0E050FF4F6081DA
:10116000812F0E94F20310939601F0CF0E94A803F2
:101170001092960110919601143098F420919501E7
:10118000812F90E0FC01E85EFE4F211302C061E078
:1011900001C060E080810E94D1021F5F1093960120
:1011A000E9CF0E949C03DC01CB0188579C4EAF4FD6
:1011B000BF4F8093050190930601A0930701B09360
:1011C00008010E949E02F1CD052E97FB1EF40094AB
:1011D0000E94FB0857FD07D00E940E0907FC03D0B0
:1011E0004EF40C94FB0850954095309521953F4F57
:1011F0004F4F5F4F089590958095709561957F4F03
:101200008F4F9F4F08950E943009A59F900DB49F66
:10121000900DA49F800D911D11240895A1E21A2E16
:10122000AA1BBB1BFD010DC0AA1FBB1FEE1FFF1F8A
:10123000A217B307E407F50720F0A21BB30BE40BDA
:10124000F50B661F771F881F991F1A9469F7609521
:101250007095809590959B01AC01BD01CF010895DB
:10126000A29FB001B39FC001A39F700D811D1124E7
:10127000911DB29F700D811D1124911D08950E9432
:1012800053090C943B0A0E94340A58F00E942D0A1C
:1012900040F029F45F3F29F00C94240A51110C947A
:1012A0006F0A0C942A0A0E944C0A68F39923B1F33E
:1012B000552391F3951B550BBB27AA27621773077C
:1012C000840738F09F5F5F4F220F331F441FAA1F10
:1012D000A9F335D00E2E3AF0E0E832D091505040CC
:1012E000E695001CCAF72BD0FE2F29D0660F771F7A
:1012F000881FBB1F261737074807AB07B0E809F060
:10130000BB0B802DBF01FF2793585F4F3AF09E3FE4
:10131000510578F00C94240A0C946F0A5F3FE4F3B3
:10132000983ED4F3869577956795B795F7959F5F27
:10133000C9F7880F911D9695879597F90895E1E073
:10134000660F771F881FBB1F621773078407BA07D2
:1013500020F0621B730B840BBA0BEE1F88F7E0952D
:1013600008950E94B8096894B1110C946F0A089509
:101370000E94540A88F09F5798F0B92F9927B751C7
:10138000B0F0E1F0660F771F881F991F1AF0BA9529
:10139000C9F714C0B13091F00E946E0AB1E008950F
:1013A0000C946E0A672F782F8827B85F39F0B93F01
:1013B000CCF3869577956795B395D9F73EF49095DC
:1013C0008095709561957F4F8F4F9F4F0895E8945A
:1013D00009C097FB3EF490958095709561957F4F7D
:1013E0008F4F9F4F9923A9F0F92F96E9BB2793952B
:1013F000F695879577956795B795F111F8CFFAF43B
:10140000BB0F11F460FF1BC06F5F7F4F8F4F9F4F6B
:1014100016C0882311F096E911C0772321F09EE8C9
:10142000872F762F05C0662371F096E8862F70E02F
:1014300060E02AF09A95660F771F881FDAF7880F09
:101440009695879597F9089597F99F6780E870E0DA
:1014500060E008959FEF80EC089500240A9416162A
:10146000170618060906089500240A941216130692
:10147000140605060895092E0394000C11F4882320
:1014800052F0BB0F40F4BF2B11F460FF04C06F5F3C
:101490007F4F8F4F9F4F089557FD9058440F551F12
:1014A00059F05F3F71F04795880F97FB991F61F0E6
:1014B0009F3F79F087950895121613061406551F5D
:1014C000F2CF4695F1DF08C0161617061806991FC9
:1014D000F1CF86957105610508940895E894BB27BE
:1014E00066277727CB0197F9089597FB072E16F407
:1014F000009407D077FD09D00E94890A07FC05D027
:101500003EF4909581959F4F0895709561957F4F1A
:101510000895AA1BBB1B51E107C0AA1FBB1FA6173A
:10152000B70710F0A61BB70B881F991F5A95A9F78C
:1015300080959095BC01CD010895EE0FFF1F059099
:10154000F491E02D099481E090E0F8940C94A80ABD
:04155000F894FFCF3D
:101554000F0F0F0FFFA00F00000F0F0F0C0B0D0D3F
:10156400000F0F0F080703021112131000000000F0
:0E15740035029E01CD017C02FE01DC01F0017A
:103800000C94341C0C94511C0C94511C0C94511CA1
:103810000C94511C0C94511C0C94511C0C94511C74
:103820000C94511C0C94511C0C94511C0C94511C64
:103830000C94511C0C94511C0C94511C0C94511C54
:103840000C94511C0C94511C0C94511C0C94511C44
:103850000C94511C0C94511C0C94511C0C94511C34
:103860000C94511C0C94511C11241FBECFEFD4E0BA
:10387000DEBFCDBF11E0A0E0B1E0E4EAFFE302C0AB
:1038800005900D92A230B107D9F712E0A2E0B1E0A5
:1038900001C01D92AD30B107E1F70E94361D0C94B6
:1038A000D01F0C94001C982F9595959595959595FE
:1038B000905D8F708A307CF0282F295A8091C0004B
:1038C00085FFFCCF9093C6008091C00085FFFCCFA0
:1038D0002093C6000895282F205DF0CF982F809167
:1038E000C00085FFFCCF9093C6000895EF92FF9231
:1038F0000F931F93EE24FF2487018091C00087FD62
:1039000017C00894E11CF11C011D111D81E4E8168B
:1039100082E4F8068FE0080780E0180770F3E09172
:103920000401F091050109958091C00087FFE9CF5E
:103930008091C6001F910F91FF90EF9008950E9413
:10394000761C982F8091C00085FFFCCF9093C60015
:1039500091362CF490330CF09053892F089597559D
:10396000892F08951F930E949F1C182F0E949F1C4F
:103970001295107F810F1F910895882351F0982F81
:1039800091508091C00087FFFCCF8091C6009923A1
:10399000B9F708951F93182F0E94761C803249F0C2
:1039A000809103018F5F809303018530C1F01F91E7
:1039B00008958091C00085FFFCCF84E18093C6000C
:1039C0008091C00085FFFCCF1093C6008091C0009D
:1039D00085FFFCCF80E18093C6001F910895E091A0
:1039E0000401F091050109951F9108950E94761C2C
:1039F000803241F0809103018F5F80930301853015
:103A000081F008958091C00085FFFCCF84E1809310
:103A1000C6008091C00085FFFCCF80E18093C60086
:103A20000895E0910401F09105010995089510921F
:103A30000A028823D1F090E040E951E02D9A28EE67
:103A400033E0FA013197F1F721503040D1F72D984A
:103A500028EE33E0FA013197F1F721503040D1F7E9
:103A60009F5F981758F380930A0208953F924F92F0
:103A70005F926F927F928F929F92AF92BF92CF92FE
:103A8000DF92EF92FF920F931F93CF93DF9300008B
:103A900083E38093C4001092C50088E18093C10045
:103AA00086E08093C2005098589A259A81E00E943F
:103AB000171D44E1F42E3EE1E32E24E9D22E96E0D8
:103AC000C92E80E1B82EAA24A39401E4902E16E515
:103AD000812EB2E57B2EA0E26A2EF9E45F2EE3E5AB
:103AE0004E2E70E5372E0E94761C8033B1F1813363
:103AF00009F441C0803409F479C0813409F48CC0E0
:103B0000823471F1853409F47BC0803531F182351E
:103B100021F1813511F1853509F48DC0863509F41F
:103B20009DC0843609F4AEC0843709F41BC18537C3
:103B300009F485C1863709F47AC0809103018F5F4B
:103B400080930301853079F6E0910401F09105013D
:103B500009950E94761C803351F60E94F61CC3CF53
:103B600093E18091C00087FFFCCF8091C60099232C
:103B7000A1F39150F6CF0E94761C8032F1F680912D
:103B8000C00085FFFCCFF092C6008091C00085FF89
:103B9000FCCF9092C6008091C00085FFFCCF809240
:103BA000C6008091C00085FFFCCF7092C600809156
:103BB000C00085FFFCCF6092C6008091C00085FFE9
:103BC000FCCF5092C6008091C00085FFFCCF409290
:103BD000C6008091C00085FFFCCF3092C600809166
:103BE000C00085FFFCCFB092C6007DCF0E94761C3E
:103BF000863808F4B2CF0E94761C0E94F61C73CF60
:103C000094E08091C00087FFFCCF8091C60099238B
:103C100009F4A3CF9150F5CF0E94761C8038D1F0E3
:103C2000813861F1823809F499C0883979F080E0EF
:103C30000E94CA1C58CF0E94761C809306010E94E5
:103C4000761C809307010E94F61C4DCF83E00E94F2
:103C5000CA1C49CF82E00E94CA1C45CF0E94761C34
:103C6000803309F486C192E08091C00087FFFCCFC9
:103C70008091C6009923D9F29150F6CF81E00E943D
:103C8000CA1C31CF0E94761C809309020E94761CC8
:103C90008093080280910C028E7F80930C020E9418
:103CA000761C853429F480910C02816080930C028B
:103CB0008091080290910902892B89F000E010E0C0
:103CC0000E94761CF801E85FFE4F80830F5F1F4F54
:103CD00080910802909109020817190788F30E9441
:103CE000761C803209F029CF80910C0280FFD1C070
:103CF0004091060150910701440F551F5093070151
:103D000040930601A0910802B09109021097C9F0F2
:103D1000E8E0F1E09A01BD016E0F7F1FF999FECF37
:103D200032BD21BD819180BDFA9AF99A2F5F3F4F34
:103D3000E617F70799F74A0F5B1F50930701409367
:103D400006018091C00085FFFCCFF092C6008091F3
:103D5000C00085FFFCCFB092C600C5CE80E10E94B6
:103D6000CA1CC1CE0E94761C809309020E94761C58
:103D7000809308028091060190910701880F991F96
:103D800090930701809306010E94761C853409F404
:103D90007AC080910C028E7F80930C020E94761C68
:103DA000803209F0A0CE8091C00085FFFCCFF09258
:103DB000C600A0910802B09109021097B9F1809154
:103DC0000C02182F1170082F0270E0910601F0917B
:103DD00007019F012F5F3F4FB90140E050E01123E1
:103DE000B1F4002339F494918091C00085FFFCCF99
:103DF0009093C6004F5F5F4FCB010196F9014A17C0
:103E00005B0780F4BC012F5F3F4F112351F3F999F9
:103E1000FECFF2BDE1BDF89A90B58091C00085FF5C
:103E2000FCCFE6CF70930701609306018091C0003C
:103E300085FDD9CE8091C00085FFF8CFD4CE0E94F9
:103E4000761C803209F079CE8091C00085FFFCCFCE
:103E5000F092C6008091C00085FFFCCFE092C600C2
:103E60008091C00085FFFCCFD092C6008091C00039
:103E700085FFFCCFC092C6008091C00085FFFCCFBB
:103E8000B092C60030CE80910C02816080930C020B
:103E900085CF809107018823880F880B8A21809322
:103EA0000B028091060190910701880F991F909352
:103EB0000701809306018091080280FF09C080916C
:103EC00008029091090201969093090280930802DA
:103ED000F894F999FECF1127E0910601F0910701BE
:103EE000C8E0D1E08091080290910902103091F46D
:103EF0000091570001700130D9F303E0009357009F
:103F0000E8950091570001700130D9F301E1009369
:103F10005700E89509901990009157000170013001
:103F2000D9F301E000935700E8951395103498F009
:103F300011270091570001700130D9F305E000937B
:103F40005700E8950091570001700130D9F301E165
:103F500000935700E8953296029709F0C7CF1030CA
:103F600011F00296E5CF11248091C00085FFE9CEC3
:103F7000ECCE0E94761C0E94761C182F0E94761CA4
:103F8000112351F0113021F086E00E94CA1CABCD04
:103F900084E90E94CA1CA7CD8EE10E94CA1CA3CD51
:043FA000F894FFCFC3
:023FA40080009B
:0400000300003800C1
:00000001FF
