:100000000C945C000C946E000C946E000C946E00CA
:100010000C946E000C946E000C946E000C946E00A8
:100020000C946E000C946E000C946E000C946E0098
:100030000C946E000C946E000C946E000C946E0088
:100040000C9471010C946E000C946E000C946E0074
:100050000C946E000C946E000C946E000C946E0068
:100060000C946E000C946E00000000002500280027
:100070002B0000000008000201000003040700003C
:1000800000000000000000000000240027002A00FB
:10009000010204081020408001020408102001021F
:1000A00004081020040404040404040402020202EC
:1000B000020203030303030311241FBECFEFD4E0A6
:1000C000DEBFCDBF21E0A0E0B1E001C01D92AC30A9
:1000D000B207E1F70E94BB010C94E5020C9400000A
:1000E00090E0FC01EE58FF4F3491FC01E057FF4FC8
:1000F0002491FC01EC55FF4FE491EE2309F43BC041
:10010000332339F1333091F038F43130A9F0323003
:1001100001F584B58F7D12C0373091F03830A1F0F1
:100120003430B9F4809180008F7D03C080918000CD
:100130008F77809380000DC084B58F7784BD09C010
:100140008091B0008F7703C08091B0008F7D809345
:10015000B000F0E0EE0FFF1FE859FF4FA591B491FA
:100160008FB7F894EC91611103C020952E2301C044
:100170002E2B2C938FBF0895CF93DF9390E0FC013B
:10018000E057FF4F2491FC01EC55FF4F84918823E9
:1001900061F190E0880F991FFC01EA57FF4FC5916C
:1001A000D491FC01E859FF4FA591B491611109C0A8
:1001B0009FB7F8948881209582238883EC912E2321
:1001C0000BC0623061F49FB7F8943881822F80951C
:1001D00083238883EC912E2B2C939FBF06C08FB76F
:1001E000F894E8812E2B28838FBFDF91CF9108955B
:1001F0003FB7F8948091050190910601A091070105
:10020000B091080126B5A89B05C02F3F19F00196B3
:10021000A11DB11D3FBFBA2FA92F982F8827820F8C
:10022000911DA11DB11DBC01CD0142E0660F771FDC
:10023000881F991F4A95D1F708958F929F92AF9288
:10024000BF92CF92DF92EF92FF926B017C010E94EE
:10025000F8004B015C01C114D104E104F104F1F098
:100260000E94F800DC01CB0188199909AA09BB0991
:10027000883E9340A105B10570F321E0C21AD10870
:10028000E108F10888EE880E83E0981EA11CB11CDD
:10029000C114D104E104F10419F7DDCFFF90EF9010
:1002A000DF90CF90BF90AF909F908F900895CF93A5
:1002B000DF93D82FC62F60E089E00E947000DEBD7A
:1002C00000000DB407FEFDCF8EB5CEBD00000DB40D
:1002D00007FEFDCF8EB561E089E0DF91CF910C94F0
:1002E00070001F920F920FB60F9211242F933F931D
:1002F0008F939F93AF93BF938091010190910201DF
:10030000A0910301B09104013091000123E0230F7B
:100310002D3720F40196A11DB11D05C026E8230F3D
:100320000296A11DB11D20930001809301019093BD
:100330000201A0930301B093040180910501909103
:100340000601A0910701B09108010196A11DB11D00
:100350008093050190930601A0930701B0930801D3
:10036000BF91AF919F918F913F912F910F900FBEB1
:100370000F901F901895789484B5826084BD84B5E1
:10038000816084BD85B5826085BD85B5816085BD90
:1003900080916E00816080936E0010928100809148
:1003A00081008260809381008091810081608093D0
:1003B0008100809180008160809380008091B100F5
:1003C00084608093B1008091B00081608093B00020
:1003D00080917A00846080937A0080917A008260B4
:1003E00080937A0080917A00816080937A00809176
:1003F0007A00806880937A001092C10061E089E001
:100400000E94BC0061E089E00E94700080E58CBD24
:1004100081E08DBDCFB7F89480910901811127C08B
:10042000EEEAF0E08491EAE9F0E09491E82FF0E060
:10043000EE0FFF1FEA57FF4FA591B491EC91E9230E
:1004400021F461E08AE00E94700061E08AE00E948D
:10045000BC008CB580618CBD8CB580648CBD61E0C6
:100460008DE00E94BC0061E08BE00E94BC008091A6
:1004700009018F5F80930901CFBF60E08EE00E9489
:10048000BC0061E081E10E94BC0061E081E10E946A
:10049000700064EF71E080E090E00E941D0161E077
:1004A00082E10E94BC0061E082E10E94700064EF82
:1004B00071E080E090E00E941D0161E083E10E9414
:1004C000BC0061E083E10E94700064EF71E080E0B5
:1004D00090E00E941D0161E084E10E94BC0061E0A7
:1004E00084E10E94700064EF71E080E090E00E947F
:1004F0001D0160E080E00E94570160E08FEF0E94E4
:1005000057016FEF89E00E9457016FEF8AE00E9468
:10051000570163E08BE00E9457016FEF8CE00E946F
:10052000570160E081E00E9457016DE082E00E9487
:1005300057016BE083E00E9457016CE084E00E9469
:100540005701C0E0D0E030E4F32E0FE010E0F0926D
:100550007C0080917A00806480937A0080917A0098
:1005600086FDFCCF809178002091790090E0922B5D
:100570008436910528F410920B0110920A010BC0E9
:100580008456910926E0969587952A95E1F79093F0
:100590000B0180930A0180910A0190910B01409711
:1005A00020F010930B0100930A0160910A018AE088
:1005B0000E94570164E670E080E090E00E941D0117
:0E05C000209729F20E940000C2CFF894FFCFCE
:103800000C94341C0C94511C0C94511C0C94511CA1
:103810000C94511C0C94511C0C94511C0C94511C74
:103820000C94511C0C94511C0C94511C0C94511C64
:103830000C94511C0C94511C0C94511C0C94511C54
:103840000C94511C0C94511C0C94511C0C94511C44
:103850000C94511C0C94511C0C94511C0C94511C34
:103860000C94511C0C94511C11241FBECFEFD4E0BA
:10387000DEBFCDBF11E0A0E0B1E0E4EAFFE302C0AB
:1038800005900D92A230B107D9F712E0A2E0B1E0A5
:1038900001C01D92AD30B107E1F70E94361D0C94B6
:1038A000D01F0C94001C982F9595959595959595FE
:1038B000905D8F708A307CF0282F295A8091C0004B
:1038C00085FFFCCF9093C6008091C00085FFFCCFA0
:1038D0002093C6000895282F205DF0CF982F809167
:1038E000C00085FFFCCF9093C6000895EF92FF9231
:1038F0000F931F93EE24FF2487018091C00087FD62
:1039000017C00894E11CF11C011D111D81E4E8168B
:1039100082E4F8068FE0080780E0180770F3E09172
:103920000401F091050109958091C00087FFE9CF5E
:103930008091C6001F910F91FF90EF9008950E9413
:10394000761C982F8091C00085FFFCCF9093C60015
:1039500091362CF490330CF09053892F089597559D
:10396000892F08951F930E949F1C182F0E949F1C4F
:103970001295107F810F1F910895882351F0982F81
:1039800091508091C00087FFFCCF8091C6009923A1
:10399000B9F708951F93182F0E94761C803249F0C2
:1039A000809103018F5F809303018530C1F01F91E7
:1039B00008958091C00085FFFCCF84E18093C6000C
:1039C0008091C00085FFFCCF1093C6008091C0009D
:1039D00085FFFCCF80E18093C6001F910895E091A0
:1039E0000401F091050109951F9108950E94761C2C
:1039F000803241F0809103018F5F80930301853015
:103A000081F008958091C00085FFFCCF84E1809310
:103A1000C6008091C00085FFFCCF80E18093C60086
:103A20000895E0910401F09105010995089510921F
:103A30000A028823D1F090E040E951E02D9A28EE67
:103A400033E0FA013197F1F721503040D1F72D984A
:103A500028EE33E0FA013197F1F721503040D1F7E9
:103A60009F5F981758F380930A0208953F924F92F0
:103A70005F926F927F928F929F92AF92BF92CF92FE
:103A8000DF92EF92FF920F931F93CF93DF9300008B
:103A900083E38093C4001092C50088E18093C10045
:103AA00086E08093C2005098589A259A81E00E943F
:103AB000171D44E1F42E3EE1E32E24E9D22E96E0D8
:103AC000C92E80E1B82EAA24A39401E4902E16E515
:103AD000812EB2E57B2EA0E26A2EF9E45F2EE3E5AB
:103AE0004E2E70E5372E0E94761C8033B1F1813363
:103AF00009F441C0803409F479C0813409F48CC0E0
:103B0000823471F1853409F47BC0803531F182351E
:103B100021F1813511F1853509F48DC0863509F41F
:103B20009DC0843609F4AEC0843709F41BC18537C3
:103B300009F485C1863709F47AC0809103018F5F4B
:103B400080930301853079F6E0910401F09105013D
:103B500009950E94761C803351F60E94F61CC3CF53
:103B600093E18091C00087FFFCCF8091C60099232C
:103B7000A1F39150F6CF0E94761C8032F1F680912D
:103B8000C00085FFFCCFF092C6008091C00085FF89
:103B9000FCCF9092C6008091C00085FFFCCF809240
:103BA000C6008091C00085FFFCCF7092C600809156
:103BB000C00085FFFCCF6092C6008091C00085FFE9
:103BC000FCCF5092C6008091C00085FFFCCF409290
:103BD000C6008091C00085FFFCCF3092C600809166
:103BE000C00085FFFCCFB092C6007DCF0E94761C3E
:103BF000863808F4B2CF0E94761C0E94F61C73CF60
:103C000094E08091C00087FFFCCF8091C60099238B
:103C100009F4A3CF9150F5CF0E94761C8038D1F0E3
:103C2000813861F1823809F499C0883979F080E0EF
:103C30000E94CA1C58CF0E94761C809306010E94E5
:103C4000761C809307010E94F61C4DCF83E00E94F2
:103C5000CA1C49CF82E00E94CA1C45CF0E94761C34
:103C6000803309F486C192E08091C00087FFFCCFC9
:103C70008091C6009923D9F29150F6CF81E00E943D
:103C8000CA1C31CF0E94761C809309020E94761CC8
:103C90008093080280910C028E7F80930C020E9418
:103CA000761C853429F480910C02816080930C028B
:103CB0008091080290910902892B89F000E010E0C0
:103CC0000E94761CF801E85FFE4F80830F5F1F4F54
:103CD00080910802909109020817190788F30E9441
:103CE000761C803209F029CF80910C0280FFD1C070
:103CF0004091060150910701440F551F5093070151
:103D000040930601A0910802B09109021097C9F0F2
:103D1000E8E0F1E09A01BD016E0F7F1FF999FECF37
:103D200032BD21BD819180BDFA9AF99A2F5F3F4F34
:103D3000E617F70799F74A0F5B1F50930701409367
:103D400006018091C00085FFFCCFF092C6008091F3
:103D5000C00085FFFCCFB092C600C5CE80E10E94B6
:103D6000CA1CC1CE0E94761C809309020E94761C58
:103D7000809308028091060190910701880F991F96
:103D800090930701809306010E94761C853409F404
:103D90007AC080910C028E7F80930C020E94761C68
:103DA000803209F0A0CE8091C00085FFFCCFF09258
:103DB000C600A0910802B09109021097B9F1809154
:103DC0000C02182F1170082F0270E0910601F0917B
:103DD00007019F012F5F3F4FB90140E050E01123E1
:103DE000B1F4002339F494918091C00085FFFCCF99
:103DF0009093C6004F5F5F4FCB010196F9014A17C0
:103E00005B0780F4BC012F5F3F4F112351F3F999F9
:103E1000FECFF2BDE1BDF89A90B58091C00085FF5C
:103E2000FCCFE6CF70930701609306018091C0003C
:103E300085FDD9CE8091C00085FFF8CFD4CE0E94F9
:103E4000761C803209F079CE8091C00085FFFCCFCE
:103E5000F092C6008091C00085FFFCCFE092C600C2
:103E60008091C00085FFFCCFD092C6008091C00039
:103E700085FFFCCFC092C6008091C00085FFFCCFBB
:103E8000B092C60030CE80910C02816080930C020B
:103E900085CF809107018823880F880B8A21809322
:103EA0000B028091060190910701880F991F909352
:103EB0000701809306018091080280FF09C080916C
:103EC00008029091090201969093090280930802DA
:103ED000F894F999FECF1127E0910601F0910701BE
:103EE000C8E0D1E08091080290910902103091F46D
:103EF0000091570001700130D9F303E0009357009F
:103F0000E8950091570001700130D9F301E1009369
:103F10005700E89509901990009157000170013001
:103F2000D9F301E000935700E8951395103498F009
:103F300011270091570001700130D9F305E000937B
:103F40005700E8950091570001700130D9F301E165
:103F500000935700E8953296029709F0C7CF1030CA
:103F600011F00296E5CF11248091C00085FFE9CEC3
:103F7000ECCE0E94761C0E94761C182F0E94761CA4
:103F8000112351F0113021F086E00E94CA1CABCD04
:103F900084E90E94CA1CA7CD8EE10E94CA1CA3CD51
:043FA000F894FFCFC3
:023FA40080009B
:0400000300003800C1
:00000001FF
