:100000000C945C000C946E000C946E000C946E00CA
:100010000C946E000C946E000C946E000C946E00A8
:100020000C946E000C946E000C946E000C946E0098
:100030000C946E000C946E000C946E000C946E0088
:100040000C9471010C946E000C946E000C946E0074
:100050000C946E000C946E000C946E000C946E0068
:100060000C946E000C946E00000000002500280027
:100070002B0000000008000201000003040700003C
:1000800000000000000000000000240027002A00FB
:10009000010204081020408001020408102001021F
:1000A00004081020040404040404040402020202EC
:1000B000020203030303030311241FBECFEFD4E0A6
:1000C000DEBFCDBF21E0A0E0B1E001C01D92AC30A9
:1000D000B207E1F70E94BB010C94E5020C9400000A
:1000E00090E0FC01EE58FF4F3491FC01E057FF4FC8
:1000F0002491FC01EC55FF4FE491EE2309F43BC041
:10010000332339F1333091F038F43130A9F0323003
:1001100001F584B58F7D12C0373091F03830A1F0F1
:100120003430B9F4809180008F7D03C080918000CD
:100130008F77809380000DC084B58F7784BD09C010
:100140008091B0008F7703C08091B0008F7D809345
:10015000B000F0E0EE0FFF1FE859FF4FA591B491FA
:100160008FB7F894EC91611103C020952E2301C044
:100170002E2B2C938FBF0895CF93DF9390E0FC013B
:10018000E057FF4F2491FC01EC55FF4F84918823E9
:1001900061F190E0880F991FFC01EA57FF4FC5916C
:1001A000D491FC01E859FF4FA591B491611109C0A8
:1001B0009FB7F8948881209582238883EC912E2321
:1001C0000BC0623061F49FB7F8943881822F80951C
:1001D00083238883EC912E2B2C939FBF06C08FB76F
:1001E000F894E8812E2B28838FBFDF91CF9108955B
:1001F0003FB7F8948091050190910601A091070105
:10020000B091080126B5A89B05C02F3F19F00196B3
:10021000A11DB11D3FBFBA2FA92F982F8827820F8C
:10022000911DA11DB11DBC01CD0142E0660F771FDC
:10023000881F991F4A95D1F708958F929F92AF9288
:10024000BF92CF92DF92EF92FF926B017C010E94EE
:10025000F8004B015C01C114D104E104F104F1F098
:100260000E94F800DC01CB0188199909AA09BB0991
:10027000883E9340A105B10570F321E0C21AD10870
:10028000E108F10888EE880E83E0981EA11CB11CDD
:10029000C114D104E104F10419F7DDCFFF90EF9010
:1002A000DF90CF90BF90AF909F908F900895CF93A5
:1002B000DF93D82FC62F60E089E00E947000DEBD7A
:1002C00000000DB407FEFDCF8EB5CEBD00000DB40D
:1002D00007FEFDCF8EB561E089E0DF91CF910C94F0
:1002E00070001F920F920FB60F9211242F933F931D
:1002F0008F939F93AF93BF938091010190910201DF
:10030000A0910301B09104013091000123E0230F7B
:100310002D3720F40196A11DB11D05C026E8230F3D
:100320000296A11DB11D20930001809301019093BD
:100330000201A0930301B093040180910501909103
:100340000601A0910701B09108010196A11DB11D00
:100350008093050190930601A0930701B0930801D3
:10036000BF91AF919F918F913F912F910F900FBEB1
:100370000F901F901895789484B5826084BD84B5E1
:10038000816084BD85B5826085BD85B5816085BD90
:1003900080916E00816080936E0010928100809148
:1003A00081008260809381008091810081608093D0
:1003B0008100809180008160809380008091B100F5
:1003C00084608093B1008091B00081608093B00020
:1003D00080917A00846080937A0080917A008260B4
:1003E00080937A0080917A00816080937A00809176
:1003F0007A00806880937A001092C10061E089E001
:100400000E94BC0061E089E00E94700080E58CBD24
:1004100081E08DBDCFB7F89480910901811127C08B
:10042000EEEAF0E08491EAE9F0E09491E82FF0E060
:10043000EE0FFF1FEA57FF4FA591B491EC91E9230E
:1004400021F461E08AE00E94700061E08AE00E948D
:10045000BC008CB580618CBD8CB580648CBD61E0C6
:100460008DE00E94BC0061E08BE00E94BC008091A6
:1004700009018F5F80930901CFBF60E08EE00E9489
:10048000BC0061E081E10E94BC0061E081E10E946A
:10049000700064EF71E080E090E00E941D0161E077
:1004A00082E10E94BC0061E082E10E94700064EF82
:1004B00071E080E090E00E941D0161E083E10E9414
:1004C000BC0061E083E10E94700064EF71E080E0B5
:1004D00090E00E941D0161E084E10E94BC0061E0A7
:1004E00084E10E94700064EF71E080E090E00E947F
:1004F0001D0160E080E00E94570160E08FEF0E94E4
:1005000057016FEF89E00E9457016FEF8AE00E9468
:10051000570163E08BE00E9457016FEF8CE00E946F
:10052000570160E081E00E9457016DE082E00E9487
:1005300057016BE083E00E9457016CE084E00E9469
:100540005701C0E0D0E030E4F32E0FE010E0F0926D
:100550007C0080917A00806480937A0080917A0098
:1005600086FDFCCF809178002091790090E0922B5D
:100570008436910528F410920B0110920A010BC0E9
:100580008456910926E0969587952A95E1F79093F0
:100590000B0180930A0180910A0190910B01409711
:1005A00020F010930B0100930A0160910A018AE088
:1005B0000E94570164E670E080E090E00E941D0117
:0E05C000209729F20E940000C2CFF894FFCFCE
:00000001FF
